:020000040800F2
:10000000002800201518000891170008971700080D
:100010009D170008A3170008A9170008000000009A
:10002000000000000000000000000000AF17000802
:10003000BB17000800000000C7170008D31700080E
:100040005D1800085D1800085D1800085D180008BC
:100050005D1800085D1800085D1800085D180008AC
:100060005D1800085D1800085D1800085D1800089C
:100070005D1800085D1800085D1800085D1800088C
:100080005D1800085D1800085D1800085D1800087C
:100090005D1800085D1800085D1800085D1800086C
:1000A0005D1800085D1800085D1800085D1800085C
:1000B000E11700085D180008000000005D18000846
:1000C0005D18000800000000000000005D18000836
:1000D000000000005D1800085D1800080000000026
:1000E0005D1800085D1800085D1800080000000099
:1000F0000000000000000000000000000000000000
:0C01000000000000000000005FF808F1A3
:10010C0010B5054C237833B9044B13B10448AFF345
:10011C0000800123237010BD94000020000000001B
:10012C008C2E000808B5034B1BB103490348AFF3F1
:10013C00008008BD00000000980000208C2E0008F4
:10014C0080B483B000AF7860094A7B6852F82330E2
:10015C00012B06D1064A7B68002142F823100123AB
:10016C0000E0002318460C37BD4680BC704700BF2A
:10017C00DC00002080B483B000AF7860044A7B6858
:10018C00012142F8231000BF0C37BD4680BC7047DC
:10019C00DC00002080B582B000AF78607B68022B59
:1001AC0015D07B68022B18DC7B68002B03D07B6896
:1001BC00012B06D011E001210B4801F035FE03465E
:1001CC000DE00221084801F02FFE034607E0042150
:1001DC00054801F029FE034601E000BF0023184644
:1001EC000837BD4680BD00BF0008014080B582B015
:1001FC0000AF00237B6069E0384A7B6852F823200B
:10020C0037497B6841F82320364A7B6852F8232013
:10021C0032497B6841F823207868FFF7BBFF024620
:10022C0030497B6841F823202D4A7B6852F8232003
:10023C002A497B6851F823309A4244D1274A7B687B
:10024C0052F8232027497B6851F823309A423AD13F
:10025C00254A7B6852F8232022497B6851F82330C9
:10026C009A421CD01F4A7B6852F823201E497B6897
:10027C0041F823201B4A7B6852F82330002B22D1F3
:10028C007868FFF777FF4FF48041184801F0FBFDC9
:10029C00174A7B684FF4967142F8231013E0144A06
:1002AC007B6852F823305A1E11497B6841F8232091
:1002BC000F4A7B6852F82330002B04D10A4A7B6822
:1002CC00012142F823107B6801337B607B68042B8F
:1002DC0092DD00BF00BF0837BD4680BD1400002072
:1002EC0000000020280000203C000020000C0140F1
:1002FC005000002080B400AF074B1B680133064A46
:10030C001360054B1B68012B02DD034B00221A60A6
:10031C0000BFBD4680BC7047B000002080B500AF68
:10032C0001220121114801F096FD012202210F4802
:10033C0001F091FD012204210C4801F08CFD0122F9
:10034C0008210A4801F087FD01221021074801F01D
:10035C0082FD01222021054801F07DFD0122402172
:10036C00024801F078FD00BF80BD00BF000C0140C9
:10037C0080B500AF01224FF40051084801F06BFD2D
:10038C0001224FF46071054801F065FD01224FF424
:10039C00E051024801F05FFD00BF80BD000C014040
:1003AC0080B582B000AF78607B68092B00F28F803B
:1003BC0001A252F823F000BFED0300082B04000843
:1003CC003704000857040008770400088D0400085F
:1003DC00A3040008B9040008DB040008C5040008E5
:1003EC00002201213C4801F036FD002202213A484E
:1003FC0001F031FD00220421374801F02CFD0022D0
:10040C000821354801F027FD00221021324801F067
:10041C0022FD00222021304801F01DFD58E0002271
:10042C0006212D4801F017FD52E0002218212A4820
:10043C0001F011FD00220321274801F00CFD0022E0
:10044C004021254801F007FD42E0002248212248C6
:10045C0001F001FD002203211F4801F0FCFC0022E9
:10046C0004211D4801F0F7FC32E0002206211A4855
:10047C0001F0F1FC00226021174801F0ECFC27E0B0
:10048C0000220521144801F0E6FC002268211248E4
:10049C0001F0E1FC1CE0002215210F4801F0DBFC0F
:1004AC00002268210C4801F0D6FC11E00022072143
:1004BC00094801F0D0FC0BE000220721064801F0AE
:1004CC00CAFC00226821044801F0C5FC00E000BF12
:1004DC0000BF0837BD4680BD000C014080B582B01E
:1004EC0000AF78607B68092B7FD801A252F823F00B
:1004FC00250500083F0500084D05000867050008A4
:10050C00810500089B050008B5050008CF0500080B
:10051C00F7050008DD05000800224FF4607135482E
:10052C0001F099FC00224FF4E051324801F093FCA9
:10053C005CE000224FF440712E4801F08CFC55E039
:10054C0000224FF406512B4801F085FC00224FF499
:10055C004061284801F07FFC48E000224FF46071B4
:10056C00244801F078FC00224FF41051214801F08E
:10057C0072FC3BE000224FF440711E4801F06BFC12
:10058C0000224FF440511B4801F065FC2EE0002284
:10059C004FF42071174801F05EFC00224FF45051CB
:1005AC00144801F058FC21E000224FF42861114856
:1005BC0001F051FC00224FF450510E4801F04BFC5D
:1005CC0014E000224FF460710A4801F044FC0DE085
:1005DC0000224FF46071074801F03DFC00224FF4FB
:1005EC005051044801F037FC00E000BF00BF083751
:1005FC00BD4680BD000C014080B483B000AF786074
:10060C007B68092B17DD7968104B83FB01239A104B
:10061C00CB17D21A13469B0013445B00CA1A0C4B1F
:10062C001A607B68094A82FB03129210DB17D31AFB
:10063C00074A536005E0064A7B681360044B0022AE
:10064C005A6000BF0C37BD4680BC70476766666653
:10065C001001002080B483B000AF78607B68092B58
:10066C0017DD7968104B83FB01239A10CB17D21A34
:10067C0013469B0013445B00CA1A0C4B1A607B6830
:10068C00094A82FB03129210DB17D31A074A5360F4
:10069C0005E0064A7B681360044B00225A6000BFD9
:1006AC000C37BD4680BC7047676666660801002043
:1006BC0080B500AFFFF732FE164B1B68002B02D043
:1006CC00012B12D023E0144B5B681846FFF768FE31
:1006DC0000224FF40061114801F0BDFB01224FF4E0
:1006EC0080510E4801F0B7FB11E00B4B1B6818460C
:1006FC00FFF756FE01224FF40061084801F0ABFBF6
:10070C0000224FF48051054801F0A5FB00BF00BF4B
:10071C0080BD00BFB0000020100100200008014087
:10072C0080B500AFFFF724FE164B1B68002B02D0E0
:10073C00012B12D023E0144B5B681846FFF7CEFE5A
:10074C0000224FF40051114801F085FB01224FF4B7
:10075C0080410E4801F07FFB11E00B4B1B681846E3
:10076C00FFF7BCFE01224FF40051084801F073FB67
:10077C0000224FF48041054801F06DFB00BF00BF23
:10078C0080BD00BFB000002008010020000801401F
:10079C0080B500AF3E4B1B68012B0ED101222021EE
:1007AC003C4801F058FB002240213A4801F053FB31
:1007BC0000228021374801F04EFB374B1B68012B80
:1007CC000ED100222021334801F045FB01224021AB
:1007DC00304801F040FB002280212E4801F03BFB09
:1007EC002E4B1B68012B0ED100222021294801F031
:1007FC0032FB00224021274801F02DFB01228021F1
:10080C00244801F028FB264B1B68012B11D1012237
:10081C004FF480711F4801F01EFB00224FF4007151
:10082C001C4801F018FB00224FF48061194801F0BC
:10083C0012FB1C4B1B68012B11D100224FF4807151
:10084C00144801F008FB01224FF40071114801F02B
:10085C0002FB00224FF480610E4801F0FCFA124BAF
:10086C001B68012B11D100224FF48071094801F053
:10087C00F2FA00224FF40071064801F0ECFA012262
:10088C004FF48061034801F0E6FA00BF80BD00BF61
:10089C006400002000080140B8000020B4000020D3
:1008AC00BC000020C00000206800002080B400AF15
:1008BC00314B1B680C3B0C2B58D801A252F823F07F
:1008CC0001090008510900082909000879090008E4
:1008DC0079090008790900087909000879090008E4
:1008EC00790900087909000815090008650900084C
:1008FC003D090008214B01221A60214B00221A608D
:10090C00204B00221A6032E01C4B01221A601C4B57
:10091C0000221A601B4B00221A6028E0174B0022A1
:10092C001A60174B01221A60164B00221A601EE047
:10093C00124B00221A60124B01221A60114B00223A
:10094C001A6014E00D4B00221A600D4B00221A6045
:10095C000C4B01221A600AE0084B00221A60084B6B
:10096C0000221A60074B01221A6000E000BF00BF92
:10097C00BD4680BC704700BF800000206400002092
:10098C00B4000020B800002080B400AF314B1B68CD
:10099C000C3B0C2B58D801A252F823F0DD090008AF
:1009AC00050A0008F1090008550A0008550A000854
:1009BC00550A0008550A0008550A0008550A00088F
:1009CC00550A0008190A0008410A00082D0A0008F7
:1009DC00214B01221A60214B00221A60204B00226D
:1009EC001A6032E01C4B00221A601C4B01221A6068
:1009FC001B4B00221A6028E0174B00221A60174B81
:100A0C0000221A60164B01221A601EE0124B0122C2
:100A1C001A60124B00221A60114B00221A6014E06B
:100A2C000D4B00221A600D4B01221A600C4B002258
:100A3C001A600AE0084B00221A60084B00221A6068
:100A4C00074B01221A6000E000BF00BFBD4680BC0E
:100A5C00704700BF84000020BC000020680000200C
:100A6C00C000002080B500AF2A4B1B681F3B032B36
:100A7C004CD801A252F823F0190B0008950A000873
:100A8C00ED0A0008C10A0008234B1B68002B06DC8A
:100A9C00224B1B68204A13601E4B22221A601E4BED
:100AAC001B681846FFF7A8FD1B4B1B68013B1A4A35
:100ABC0013602CE0184B1B68002B06DC184B1B68D2
:100ACC00154A1360134B21221A60134B1B681846EE
:100ADC00FFF792FD104B1B68013B0F4A136016E0A9
:100AEC000D4B1B68002B06DC0A4B20221A600D4BA9
:100AFC001B68094A1360084B1B681846FFF77CFDFE
:100B0C00054B1B68013B044A136000E000BF00BFAB
:100B1C0080BD00BF78000020D400002074000020AD
:100B2C00700000206C00002080B500AF2A4B1B68C1
:100B3C001F3B032B4CD801A252F823F0DD0B00080D
:100B4C00B10B0008850B0008590B0008234B1B68E0
:100B5C00002B06DC224B1B68204A13601E4B212203
:100B6C001A601E4B1B681846FFF774FD1B4B1B6865
:100B7C00013B1A4A13602CE0184B1B68002B06DC57
:100B8C00184B1B68154A1360134B20221A60134B29
:100B9C001B681846FFF75EFD104B1B68013B0F4AA4
:100BAC00136016E00D4B1B68002B06DC0E4B1B680C
:100BBC000A4A1360084B22221A60084B1B6818461D
:100BCC00FFF748FD054B1B68013B044A136000E02E
:100BDC0000BF00BF80BD00BF7C000020F0000020E3
:100BEC00700000206C0000207400002080B500AF65
:100BFC00FFF738FFFFF798FF00BF80BD80B500AF4F
:100C0C0000F028F800F002F800BF80BD80B500AFFE
:100C1C000F4B1B681F3B032B16D801A252F823F075
:100C2C003D0C0008430C00084F0C0008490C000850
:100C3C00FFF73EFD09E0FFF73BFD06E0FFF738FD4F
:100C4C0003E0FFF735FD00E000BF00BF80BD00BF33
:100C5C007800002080B500AF0F4B1B681F3B032BA7
:100C6C0016D801A252F823F0850C00088B0C000852
:100C7C00970C0008910C0008FFF752FD09E0FFF7F4
:100C8C004FFD06E0FFF74CFD03E0FFF749FD00E0E8
:100C9C0000BF00BF80BD00BF7C00002080B500AF4E
:100CAC00264B1B680E2B1BD00E2B43DC0C2B02D0BF
:100CBC000D2B2AD03EE0224B1B68002B06DC1F4B71
:100CCC000E221A601F4B1B681D4A1360FFF7EEFDC6
:100CDC00FFF75EFD1A4B1B68013B194A13602AE0B3
:100CEC00174B1B68002B06DC144B0D221A60164B9D
:100CFC001B68134A1360FFF7D9FDFFF749FD104B32
:100D0C001B68013B0E4A136015E00D4B1B68002B52
:100D1C0006DC0A4B0C221A600C4B1B68084A136049
:100D2C00FFF7C4FDFFF734FD054B1B68013B044A7C
:100D3C00136000E000BF00BF80BD00BF800000203A
:100D4C00D000002074000020700000206C000020F7
:100D5C0080B500AF264B1B680E2B06D00E2B43DC48
:100D6C000C2B2CD00D2B15D03EE0224B1B68002BEE
:100D7C0006DC1F4B0D221A601F4B1B681D4A1360AB
:100D8C00FFF702FEFFF704FD1A4B1B68013B194AE3
:100D9C0013602AE0174B1B68002B06DC144B0C224B
:100DAC001A60164B1B68134A1360FFF7EDFDFFF733
:100DBC00EFFC104B1B68013B0E4A136015E00D4B0A
:100DCC001B68002B06DC0A4B0E221A600C4B1B68AE
:100DDC00084A1360FFF7D8FDFFF7DAFC054B1B68D8
:100DEC00013B044A136000E000BF00BF80BD00BFA0
:100DFC0084000020D8000020700000206C0000202F
:100E0C007400002080B500AFFFF748FFFFF7A0FF8C
:100E1C0000BF80BD80B500AFFFF748FD174B1B68C6
:100E2C00182B11D0182B25DC162B02D0172B16D013
:100E3C0020E0FFF7ADFC124B1A68124B1B681344F1
:100E4C001846FFF7D9FB16E0FFF7A2FC0E4B1A6809
:100E5C000C4B1B6813441846FFF7CEFB0BE0FFF757
:100E6C0097FC0A4B1A68074B1B6813441846FFF78C
:100E7C00C3FB00E000BF00BF80BD00BF80000020AE
:100E8C006C000020C40000207400002070000020C2
:100E9C0080B500AFFFF778FD0F4B1B68182B0CD0FB
:100EAC00182B16DC162B02D0172B0CD011E0FFF7E9
:100EBC006FFC0220FFF7CEFB0CE0FFF769FC04206F
:100ECC00FFF7C8FB06E0FFF763FC0320FFF7C2FB4C
:100EDC0000E000BF00BF80BD8400002080B500AFE3
:100EEC00FFF798FFFFF7D4FF00BF80BD80B500AFC0
:100EFC000020FFF725F90346012B04D1064B1B6894
:100F0C000133054A1360044B1B68052B02D1024BBD
:100F1C0000221A6000BF80BDC800002080B500AF61
:100F2C00FFF7E4FFFFF7DAFFFFF76CFF6D4B1B6871
:100F3C00042B00F2CB8001A252F823F05D0F0008C5
:100F4C009D0F0008B30F000815100008771000085B
:100F5C00644B01221A60644B0C221A60634B0E2204
:100F6C001A60634B20221A60624B22221A60624B79
:100F7C001B68624A1360624B1B68624A13605E4BCB
:100F8C001B68614A13605E4B1B68604A1360A6E0E5
:100F9C000020FFF7D5F80346012B40F09980514B08
:100FAC0002221A6094E0504B16221A604F4B162204
:100FBC001A604F4B1F221A604E4B1F221A600020E2
:100FCC00FFF7BEF80346012B02D1464B03221A60F1
:100FDC000120FFF7B5F80346012B04D14C4B1B68DD
:100FEC0001334B4A13600220FFF7AAF80346012B8A
:100FFC0070D1414B1A68464B1B6813443E4A136030
:10100C00434B00221A6065E0374B17221A60374BAE
:10101C0017221A60364B1F221A60364B1F221A6099
:10102C000020FFF78DF80346012B02D12D4B042233
:10103C001A600120FFF784F80346012B04D1344BCE
:10104C001B680133324A13600220FFF779F803461C
:10105C00012B41D12F4B1A682D4B1B6813442D4A81
:10106C0013602B4B00221A6036E01F4B18221A60BB
:10107C001E4B18221A601E4B1F221A601D4B1F227A
:10108C001A600020FFF75CF80346012B02D1154BC8
:10109C0000221A600120FFF753F80346012B04D1FC
:1010AC001B4B1B6801331A4A13600220FFF748F8E8
:1010BC000346012B12D1124B1A68154B1B681344B3
:1010CC000F4A1360124B00221A6007E000BF06E0C3
:1010DC0000BF04E000BF02E000BF00E000BF00BFA3
:1010EC0080BD00BFC80000208000002084000020CC
:1010FC00780000207C0000206C000020D000002034
:10110C0074000020D8000020D4000020F000002043
:10111C00C40000207000002080B500AF00F09AFBE6
:10112C0000F03CF800F0C2F800F074F8144801F03C
:10113C00EFFA00F049F94FF47A720021114800F0EF
:10114C005DF90A220021104800F058F9FA2200211A
:10115C000E4800F053F9C82200210D4800F04EF95A
:10116C004FF47A7200210B4800F048F94FF47A7270
:10117C000021094800F042F900F000FAFCE700BF3A
:10118C001801002001180008F901000801030008EB
:10119C00090C0008F90B0008290F000880B590B065
:1011AC0000AF07F1180328220021184601F060FE59
:1011BC003B1D00221A605A609A60DA601A610223A1
:1011CC00BB610123BB621023FB6200237B6307F12D
:1011DC001803184600F070FE0346002B01D000F0F7
:1011EC00EDF80F237B600023BB600023FB60002322
:1011FC003B6100237B613B1D0021184601F0DCF8AC
:10120C000346002B01D000F0D9F800BF4037BD4693
:10121C0080BD000080B586B000AF07F10803002246
:10122C001A605A609A60DA603B4600221A605A6073
:10123C001D4B4FF080421A601B4B41F63F725A60B7
:10124C00194B00229A60184B0922DA60164B0022C7
:10125C001A61154B00229A61134801F009FA0346F2
:10126C00002B01D000F0AAF84FF48053BB6007F1BB
:10127C00080319460C4801F087FB0346002B01D0EC
:10128C0000F09CF800233B6000237B603B46194632
:10129C00054801F05FFD0346002B01D000F08EF8ED
:1012AC0000BF1837BD4680BD1801002080B588B03E
:1012BC0000AF07F1100300221A605A609A60DA60DE
:1012CC00354B9B69344A43F010039361324B9B6955
:1012DC0003F01003FB60FB682F4B9B692E4A43F015
:1012EC00040393612C4B9B6903F00403BB60BB6844
:1012FC00294B9B69284A43F008039361264B9B6951
:10130C0003F008037B607B6800224FF6F8712348DA
:10131C0000F0A1FD00224FF6FF71214800F09BFD6B
:10132C004FF400533B6100237B610123BB6107F148
:10133C00100319461B4800F0FDFB07233B610023FB
:10134C007B610123BB6107F110031946134800F0C0
:10135C00F1FB4FF6F8733B6101237B610023BB610A
:10136C000223FB6107F1100319460C4800F0E2FB65
:10137C004FF6FF733B6101237B610023BB610223AA
:10138C00FB6107F110031946054800F0D3FB00BFC1
:10139C002037BD4680BD00BF001002400008014050
:1013AC00000C01400010014080B582B000AF7860A5
:1013BC0000F084F800BF0837BD4680BD80B400AF94
:1013CC0072B600BFFEE7000080B582B000AF00230C
:1013DC007B6006E07B68184600F020F97B680133DF
:1013EC007B60054B1B781A467B689342F2DB00BF8F
:1013FC0000BF0837BD4680BDCC00002080B485B04E
:10140C0000AFF860B9607A60294B1B78272B4AD85B
:10141C00274B1B781946274A0B469B000B449B0015
:10142C001344FA681A60224B1B781846BB68224A90
:10143C00A2FB0323DA081F4903469B0003449B00CD
:10144C000B4404331A601A4B1B7818467B681A4AF3
:10145C00A2FB0323DA08174903469B0003449B00B5
:10146C000B4408331A60124B1B781946114A0B4671
:10147C009B000B449B0013440C3300221A700C4B42
:10148C001A780B4B1B78194610460A4A0B469B00E0
:10149C000B449B00134410331860054B1B7801332D
:1014AC00DAB2034B1A7000BF1437BD4680BC7047CC
:1014BC00CC00002060010020CDCCCCCC80B483B01B
:1014CC0000AF00237B6048E02A497A6813469B00F2
:1014DC0013449B000B4404331B68002B13D0254989
:1014EC007A6813469B0013449B000B4404331B681F
:1014FC00591E20487A6813469B0013449B000344F2
:10150C000433196026E01B497A6813469B00134488
:10151C009B000B440833196816487A6813469B00E5
:10152C0013449B0003440433196012497A68134630
:10153C009B0013449B000B440C331B780133D8B233
:10154C000C497A6813469B0013449B000B440C33E4
:10155C0002461A707B6801337B60074B1B781A4676
:10156C007B689342B0DB00BF00BF0C37BD4680BC2C
:10157C00704700BF60010020CC00002080B582B015
:10158C0000AF00237B603AE022497A6813469B0047
:10159C0013449B000B440C331B78002B2CD01D499F
:1015AC007A6813469B0013449B000B440C331B7846
:1015BC00013BD8B217497A6813469B0013449B0031
:1015CC000B440C3302461A7012497A6813469B007E
:1015DC0013449B000B441B6898470E497A681346CA
:1015EC009B0013449B000B4408331B68002B03D156
:1015FC007B68184600F012F87B6801337B60064B61
:10160C001B781A467B689342BEDB00BF00BF0837CD
:10161C00BD4680BD60010020CC00002080B485B0A8
:10162C0000AF78602A4B1B78013BDAB2284B1A705A
:10163C007B68FB6043E0FB685A1C264913469B0001
:10164C0013449B000B4419682248FA6813469B000C
:10165C0013449B0003441960FB685A1C1D49134634
:10166C009B0013449B000B44043319681948FA6817
:10167C0013469B0013449B00034404331960FB681E
:10168C005A1C144913469B0013449B000B4408330B
:10169C0019681048FA6813469B0013449B000344D6
:1016AC00083319600B49FA6813469B0013449B00DE
:1016BC000B440C3300221A70FB680133FB60FB688F
:1016CC00272BB8D900BF00BF1437BD4680BC70476C
:1016DC00CC0000206001002080B485B000AF154B19
:1016EC009B69144A43F001039361124B9B6903F00D
:1016FC000103BB60BB680F4BDB690E4A43F08053A0
:10170C00D3610C4BDB6903F080537B607B680A4B25
:10171C005B68FB60FB6823F0E063FB60FB6843F0F5
:10172C008063FB60044AFB68536000BF1437BD46FE
:10173C0080BC7047001002400000014080B584B0AE
:10174C0000AF78607B681B68B3F1804F13D10C4BF2
:10175C00DB690B4A43F00103D361094BDB6903F0EE
:10176C000103FB60FB68002200211C2000F0ABF998
:10177C001C2000F0C4F900BF1037BD4680BD00BF6F
:10178C000010024080B400AFFEE780B400AFFEE76B
:10179C0080B400AFFEE780B400AFFEE780B400AFCA
:1017AC00FEE780B400AF00BFBD4680BC704780B47C
:1017BC0000AF00BFBD4680BC704780B400AF00BF17
:1017CC00BD4680BC704780B500AF00F089F800BF03
:1017DC0080BD000080B500AF024800F0E5FF00BFFF
:1017EC0080BD00BF1801002080B400AF00BFBD4613
:1017FC0080BC704780B500AF1021024800F043FB5D
:10180C0000BF80BD00080140FFF7EEFF0B480C49FC
:10181C000C4A002302E0D458C4500433C4188C4240
:10182C00F9D3094A094C002301E013600432A242A7
:10183C00FBD301F0F9FAFFF76FFC704700000020B2
:10184C0094000020D02E0008940000208404002076
:10185C00FEE7000080B500AF084B1B68074A43F059
:10186C0010031360032000F023F90F2000F008F898
:10187C00FFF732FF0023184680BD00BF0020024056
:10188C0080B582B000AF7860124B1A68124B1B788F
:10189C0019464FF47A73B3FBF1F3B2FBF3F318462A
:1018AC0000F03BF90346002B01D001230EE07B68CE
:1018BC000F2B0AD8002279684FF0FF3000F003F9A3
:1018CC00064A7B681360002300E0012318460837A2
:1018DC00BD4680BD88000020900000208C000020B8
:1018EC0080B400AF054B1B781A46054B1B6813449C
:1018FC00034A136000BFBD4680BC704790000020B7
:10190C008004002080B400AF024B1B681846BD4613
:10191C0080BC70478004002080B485B000AF786034
:10192C007B6803F00703FB600C4BDB68BB60BA6899
:10193C004FF6FF031340BB60FB681A02BB681343EE
:10194C0043F0BF6343F40033BB60044ABB68D3600D
:10195C0000BF1437BD4680BC704700BF00ED00E0EF
:10196C0080B400AF044BDB681B0A03F00703184676
:10197C00BD4680BC704700BF00ED00E080B483B072
:10198C0000AF0346FB7197F90730002B0BDBFB799B
:10199C0003F01F02064997F907305B09012000FA92
:1019AC0002F241F8232000BF0C37BD4680BC7047C3
:1019BC0000E100E080B483B000AF03463960FB71F6
:1019CC0097F90730002B0ADB3B68DAB20C4997F920
:1019DC0007301201D2B20B4483F800230AE03B68B3
:1019EC00DAB20849FB7903F00F03043B1201D2B2BF
:1019FC000B441A7600BF0C37BD4680BC704700BF45
:101A0C0000E100E000ED00E080B489B000AFF860C8
:101A1C00B9607A60FB6803F00703FB61FB69C3F1F3
:101A2C000703042B28BF0423BB61FB690433062B7B
:101A3C0002D9FB69033B00E000237B614FF0FF32CE
:101A4C00BB6902FA03F3DA43BB681A407B699A401C
:101A5C004FF0FF317B6901FA03F3D9437B680B40EC
:101A6C00134318462437BD4680BC704780B582B0FE
:101A7C0000AF78607B68013BB3F1807F01D3012319
:101A8C000FE00A4A7B68013B53600F214FF0FF3097
:101A9C00FFF790FF054B00229A60044B07221A6057
:101AAC00002318460837BD4680BD00BF10E000E09B
:101ABC0080B582B000AF78607868FFF72DFF00BF6B
:101ACC000837BD4680BD80B586B000AF0346B9600F
:101ADC007A60FB7300237B61FFF742FF78617A68C1
:101AEC00B9687869FFF790FF024697F90F301146F5
:101AFC001846FFF75FFF00BF1837BD4680BD80B5A5
:101B0C0082B000AF0346FB7197F907301846FFF718
:101B1C0035FF00BF0837BD4680BD80B582B000AF31
:101B2C0078607868FFF7A2FF034618460837BD4671
:101B3C0080BD000080B48BB000AF786039600023AA
:101B4C007B6200233B6248E101227B6A02FA03F3C9
:101B5C00FB613B681B68FA691340BB61BA69FB699E
:101B6C009A4240F037813B685B68A34A93425ED04F
:101B7C00A14A934275D8A14A934258D09F4A9342A6
:101B8C006FD89F4A934252D09D4A934269D89D4A3E
:101B9C0093424CD09B4A934263D89B4A934246D083
:101BAC00994A93425DD8122B2AD8122B59D801A2EC
:101BBC0052F823F03B1C0008151C0008271C0008D9
:101BCC00691C00086F1C00086F1C00086F1C0008C3
:101BDC006F1C00086F1C00086F1C00086F1C0008AD
:101BEC006F1C00086F1C00086F1C00086F1C00089D
:101BFC006F1C00086F1C00081D1C0008311C00081D
:101C0C00824A934213D02CE03B68DB683B6229E0AC
:101C1C003B68DB6804333B6224E03B68DB680833D9
:101C2C003B621FE03B68DB680C333B621AE03B68AD
:101C3C009B68002B02D104233B6213E03B689B683A
:101C4C00012B05D108233B627B68FA691A6109E014
:101C5C0008233B627B68FA695A6103E000233B620C
:101C6C0000E000BFBB69FF2B01D87B6801E07B68FB
:101C7C0004337B61BB69FF2B02D87B6A9B0002E0BB
:101C8C007B6A083B9B003B617B691A680F213B69AF
:101C9C0001FA03F3DB431A40396A3B6901FA03F397
:101CAC001A437B691A603B685B6803F08053002B16
:101CBC0000F09080564B9B69554A43F001039361A9
:101CCC00534B9B6903F00103BB60BB68514A7B6AB1
:101CDC009B08023352F82330FB607B6A03F003034A
:101CEC009B000F2202FA03F3DB43FA681340FB60FC
:101CFC007B68494A93420DD07B68484A934207D08F
:101D0C007B68474A934201D1022304E0032302E09B
:101D1C00012300E000237A6A02F003029200934050
:101D2C00FA681343FB603B497B6A9B080233FA68F1
:101D3C0041F823203B685B6803F48013002B06D02A
:101D4C00384B9A683749BB6913438B6006E0354BB7
:101D5C009A68BB69DB43334913408B603B685B6813
:101D6C0003F40013002B06D02E4BDA682D49BB6907
:101D7C001343CB6006E02B4BDA68BB69DB43294984
:101D8C001340CB603B685B6803F40033002B06D038
:101D9C00244B5A682349BB6913434B6006E0214B23
:101DAC005A68BB69DB431F4913404B603B685B6857
:101DBC0003F48033002B06D01A4B1A681949BB69FF
:101DCC0013430B6006E0174B1A68BB69DB431549DC
:101DDC0013400B607B6A01337B623B681A687B6A39
:101DEC0022FA03F3002B7FF4AFAE00BF00BF2C37F9
:101DFC00BD4680BC704700BF00003210000031109F
:101E0C000000221000002110000012100000111020
:101E1C00001002400000014000080140000C01408D
:101E2C00001001400004014080B485B000AF786020
:101E3C000B467B807B689A687B881340002B02D012
:101E4C000123FB7301E00023FB73FB7B1846143763
:101E5C00BD4680BC704780B483B000AF78600B4641
:101E6C007B8013467B707B78002B03D07A887B6851
:101E7C001A6103E07B881A047B681A6100BF0C3777
:101E8C00BD4680BC704780B485B000AF78600B460F
:101E9C007B807B68DB68FB607A88FB6813401A04E4
:101EAC00FB68D9437B880B401A437B681A6100BFDF
:101EBC001437BD4680BC704780B586B000AF7860E3
:101ECC007B68002B01D101236CE27B681B6803F05B
:101EDC000103002B00F08780924B5B6803F00C032E
:101EEC00042B0CD08F4B5B6803F00C03082B12D126
:101EFC008C4B5B6803F48033B3F5803F0BD1894B7B
:101F0C001B6803F40033002B6CD07B685B68002BE0
:101F1C0068D1012346E27B685B68B3F5803F06D14C
:101F2C00804B1B687F4A43F4803313602EE07B6840
:101F3C005B68002B0CD17B4B1B687A4A23F48033F3
:101F4C001360784B1B68774A23F4802313601DE0E1
:101F5C007B685B68B3F5A02F0CD1724B1B68714A80
:101F6C0043F4802313606F4B1B686E4A43F4803339
:101F7C0013600BE06B4B1B686A4A23F480331360CD
:101F8C00684B1B68674A23F4802313607B685B688B
:101F9C00002B13D0FFF7B6FC386108E0FFF7B2FC5A
:101FAC0002463B69D31A642B01D90323FAE15D4B3A
:101FBC001B6803F40033002BF0D014E0FFF7A2FCF5
:101FCC00386108E0FFF79EFC02463B69D31A642B8C
:101FDC0001D90323E6E1534B1B6803F40033002BB8
:101FEC00F0D100E000BF7B681B6803F00203002BFC
:101FFC0063D04C4B5B6803F00C03002B0BD0494BAC
:10200C005B6803F00C03082B1CD1464B5B6803F494
:10201C008033002B16D1434B1B6803F00203002BBB
:10202C0005D07B681B69012B01D00123BAE13D4B24
:10203C001B6823F0F8027B685B69DB0039491343AA
:10204C000B603AE07B681B69002B20D0364B0122D9
:10205C001A60FFF757FC386108E0FFF753FC0246A3
:10206C003B69D31A022B01D903239BE12D4B1B682F
:10207C0003F00203002BF0D02A4B1B6823F0F8026C
:10208C007B685B69DB00274913430B6015E0264B2B
:10209C0000221A60FFF736FC386108E0FFF732FCCB
:1020AC0002463B69D31A022B01D903237AE11D4B5B
:1020BC001B6803F00203002BF0D17B681B6803F054
:1020CC000803002B3AD07B689B69002B19D0174B67
:1020DC0001221A60FFF716FC386108E0FFF712FCCA
:1020EC0002463B69D31A022B01D903235AE10D4B4B
:1020FC005B6A03F00203002BF0D0012000F09AFA87
:10210C001CE00A4B00221A60FFF7FCFB38610FE061
:10211C00FFF7F8FB02463B69D31A022B08D90323BD
:10212C0040E100BF001002400000424280044242E5
:10213C009E4B5B6A03F00203002BE9D17B681B68A2
:10214C0003F00403002B00F0A6800023FB75974BD3
:10215C00DB6903F08053002B0DD1944BDB69934A60
:10216C0043F08053D361914BDB6903F08053BB6028
:10217C00BB680123FB758E4B1B6803F48073002B2B
:10218C0018D18B4B1B688A4A43F480731360FFF79A
:10219C00B9FB386108E0FFF7B5FB02463B69D31A7F
:1021AC00642B01D90323FDE0814B1B6803F480737E
:1021BC00002BF0D07B68DB68012B06D17B4B1B6AB4
:1021CC007A4A43F0010313622DE07B68DB68002B35
:1021DC000CD1764B1B6A754A23F001031362734BC7
:1021EC001B6A724A23F0040313621CE07B68DB68F1
:1021FC00052B0CD16D4B1B6A6C4A43F00403136224
:10220C006A4B1B6A694A43F0010313620BE0674B8C
:10221C001B6A664A23F001031362644B1B6A634A10
:10222C0023F0040313627B68DB68002B15D0FFF7E7
:10223C0069FB38610AE0FFF765FB02463B69D31A7C
:10224C0041F28832934201D90323ABE0574B1B6A0E
:10225C0003F00203002BEED014E0FFF753FB3861C0
:10226C000AE0FFF74FFB02463B69D31A41F2883272
:10227C00934201D9032395E04C4B1B6A03F00203F4
:10228C00002BEED1FB7D012B05D1484BDB69474A76
:10229C0023F08053D3617B68DB69002B00F08180D5
:1022AC00424B5B6803F00C03082B61D07B68DB6945
:1022BC00022B46D13F4B00221A60FFF723FB3861FB
:1022CC0008E0FFF71FFB02463B69D31A022B01D92A
:1022DC00032367E0354B1B6803F00073002BF0D130
:1022EC007B681B6AB3F5803F08D1304B5B6823F4E5
:1022FC0000327B689B682D4913434B602B4B5B680A
:10230C0023F474127B68196A7B685B6A0B43274958
:10231C0013434B60274B01221A60FFF7F3FA386125
:10232C0008E0FFF7EFFA02463B69D31A022B01D9FA
:10233C00032337E01D4B1B6803F00073002BF0D018
:10234C002FE01C4B00221A60FFF7DCFA386108E022
:10235C00FFF7D8FA02463B69D31A022B01D90323A3
:10236C0020E0124B1B6803F00073002BF0D118E037
:10237C007B68DB69012B01D1012313E00B4B5B68FC
:10238C00FB60FB6803F480327B681B6A9A4206D1BF
:10239C00FB6803F470127B685B6A9A4201D00123DC
:1023AC0000E0002318461837BD4680BD00100240DF
:1023BC00007000406000424280B584B000AF78608D
:1023CC0039607B68002B01D10123D0E06A4B1B687C
:1023DC0003F007033A689A4210D9674B1B6823F045
:1023EC00070265493B6813430B60634B1B6803F0A2
:1023FC0007033A689A4201D00123B8E07B681B6856
:10240C0003F00203002B20D07B681B6803F004034D
:10241C00002B05D0594B5B68584A43F4E06353607A
:10242C007B681B6803F00803002B05D0534B5B68DB
:10243C00524A43F460535360504B5B6823F0F002F4
:10244C007B689B684D4913434B607B681B6803F0AA
:10245C000103002B40D07B685B68012B07D1474BF5
:10246C001B6803F40033002B15D101237FE07B683C
:10247C005B68022B07D1414B1B6803F00073002BE8
:10248C0009D1012373E03D4B1B6803F00203002BC1
:10249C0001D101236BE0394B5B6823F003027B68AD
:1024AC005B68364913434B60FFF72CFAF8600AE07F
:1024BC00FFF728FA0246FB68D31A41F2883293429E
:1024CC0001D9032353E02D4B5B6803F00C027B68AE
:1024DC005B689B009A42EBD1274B1B6803F0070308
:1024EC003A689A4210D2244B1B6823F00702224907
:1024FC003B6813430B60204B1B6803F007033A68DF
:10250C009A4201D0012332E07B681B6803F004037C
:10251C00002B08D0194B5B6823F4E0627B68DB6806
:10252C00164913434B607B681B6803F00803002BB0
:10253C0009D0124B5B6823F460527B681B69DB008B
:10254C000E4913434B6000F021F802460B4B5B68BD
:10255C001B0903F00F030A49CB5C22FA03F3094A67
:10256C001360094B1B681846FFF78AF900231846BD
:10257C001037BD4680BD00BF002002400010024055
:10258C00A42E0008880000208C00002080B487B0A6
:10259C0000AF0023FB600023BB6000237B610023A2
:1025AC007B6000233B611E4B5B68FB60FB6803F0A8
:1025BC000C03042B02D0082B03D027E0194B3B61F2
:1025CC0027E0FB689B0C03F00F03174AD35C7B607E
:1025DC00FB6803F48033002B10D0114B5B685B0C51
:1025EC0003F00103114AD35CBB607B680D4A02FB0C
:1025FC0003F2BB68B2FBF3F37B6104E07B680C4A2B
:10260C0002FB03F37B617B693B6102E0054B3B61A1
:10261C0000BF3B6918461C37BD4680BC704700BFE5
:10262C000010024000127A00B42E0008C42E0008DC
:10263C0000093D0080B485B000AF78600A4B1B6880
:10264C000A4AA2FB03235B0A7A6802FB03F3FB60D2
:10265C0000BFFB685A1EFA60002BF9D100BF00BF07
:10266C001437BD4680BC704788000020D34D6210E3
:10267C0080B582B000AF78607B68002B01D101235C
:10268C0041E07B6893F83D30DBB2002B06D17B68D0
:10269C00002283F83C207868FFF750F87B68022210
:1026AC0083F83D207B681A687B6804331946104612
:1026BC0000F056FA7B68012283F846207B680122E1
:1026CC0083F83E207B68012283F83F207B6801223F
:1026DC0083F840207B68012283F841207B6801222B
:1026EC0083F842207B68012283F843207B68012217
:1026FC0083F844207B68012283F845207B68012203
:10270C0083F83D20002318460837BD4680BD0000E5
:10271C0080B485B000AF78607B6893F83D30DBB255
:10272C00012B01D0012335E07B68022283F83D2088
:10273C007B681B68DA687B681B6842F00102DA6010
:10274C007B681B68164A934209D07B681B68B3F1FF
:10275C00804F04D07B681B68124A934211D17B686E
:10276C001B689B6803F00703FB60FB68062B10D00B
:10277C007B681B681A687B681B6842F001021A6050
:10278C0007E07B681B681A687B681B6842F00102D3
:10279C001A60002318461437BD4680BC704700BF32
:1027AC00002C01400004004080B584B000AF78607C
:1027BC007B681B68DB68FB607B681B681B69BB6004
:1027CC00BB6803F00203002B20D0FB6803F002036C
:1027DC00002B1BD07B681B686FF002021A617B68B0
:1027EC0001221A777B681B689B6903F00303002B9B
:1027FC0003D0786800F098F905E0786800F08BF960
:10280C00786800F09AF97B6800221A77BB6803F0AD
:10281C000403002B20D0FB6803F00403002B1BD017
:10282C007B681B686FF004021A617B6802221A77BE
:10283C007B681B689B6903F44073002B03D078689A
:10284C0000F072F905E0786800F065F9786800F03E
:10285C0074F97B6800221A77BB6803F00803002B1D
:10286C0020D0FB6803F00803002B1BD07B681B688F
:10287C006FF008021A617B6804221A777B681B6868
:10288C00DB6903F00303002B03D0786800F04CF9EC
:10289C0005E0786800F03FF9786800F04EF97B6845
:1028AC0000221A77BB6803F01003002B20D0FB68C2
:1028BC0003F01003002B1BD07B681B686FF0100219
:1028CC001A617B6808221A777B681B68DB6903F442
:1028DC004073002B03D0786800F026F905E0786887
:1028EC0000F019F9786800F028F97B6800221A7753
:1028FC00BB6803F00103002B0CD0FB6803F0010351
:10290C00002B07D07B681B686FF001021A61786896
:10291C00FEF74AFDBB6803F08003002B0CD0FB686C
:10292C0003F08003002B07D07B681B686FF08002DC
:10293C001A61786800F06FFABB6803F04003002B53
:10294C000CD0FB6803F04003002B07D07B681B689E
:10295C006FF040021A61786800F0F8F8BB6803F079
:10296C002003002B0CD0FB6803F02003002B07D0B6
:10297C007B681B686FF020021A61786800F042FADD
:10298C0000BF1037BD4680BD80B584B000AF786005
:10299C0039600023FB737B6893F83C30012B01D129
:1029AC000223B4E07B68012283F83C207B6802227E
:1029BC0083F83D207B681B689B68BB60BB6823F079
:1029CC007703BB60BB6823F47F43BB607B681B68E9
:1029DC00BA689A603B681B68B3F5005F3ED0B3F5EC
:1029EC00005F00F28780B3F5805F00F08680B3F55E
:1029FC00805F7FD8702B1AD0702B7BD8602B50D077
:102A0C00602B77D8502B3CD0502B73D8402B58D000
:102A1C00402B6FD8302B64D0302B6BD8202B60D050
:102A2C00202B67D8002B5CD0102B5AD062E07B682F
:102A3C0018683B6899683B685A683B68DB6800F02B
:102A4C006AF97B681B689B68BB60BB6843F07703C3
:102A5C00BB607B681B68BA689A604FE07B6818683B
:102A6C003B6899683B685A683B68DB6800F053F92F
:102A7C007B681B689A687B681B6842F480429A608A
:102A8C003CE07B6818683B6859683B68DB681A4611
:102A9C0000F0CAF87B681B685021184600F021F939
:102AAC002CE07B6818683B6859683B68DB681A4601
:102ABC0000F0E8F87B681B686021184600F011F9FB
:102ACC001CE07B6818683B6859683B68DB681A46F1
:102ADC0000F0AAF87B681B684021184600F001F949
:102AEC000CE07B681A683B681B681946104600F0BE
:102AFC00F8F803E00123FB7300E000BF7B680122C0
:102B0C0083F83D207B68002283F83C20FB7B184631
:102B1C001037BD4680BD80B483B000AF786000BF75
:102B2C000C37BD4680BC704780B483B000AF786072
:102B3C0000BF0C37BD4680BC704780B483B000AF7B
:102B4C00786000BF0C37BD4680BC704780B483B042
:102B5C0000AF786000BF0C37BD4680BC70470000EA
:102B6C0080B485B000AF786039607B681B68FB600F
:102B7C007B682B4A934207D07B68B3F1804F03D01C
:102B8C007B68284A934208D1FB6823F07003FB60F2
:102B9C003B685B68FA681343FB607B68204A93428E
:102BAC0007D07B68B3F1804F03D07B681D4A9342FA
:102BBC0008D1FB6823F44073FB603B68DB68FA6860
:102BCC001343FB60FB6823F080023B685B69134393
:102BDC00FB607B68FA681A603B689A687B68DA620B
:102BEC003B681A687B689A627B680D4A934203D1F2
:102BFC003B681A697B681A637B6801225A617B689F
:102C0C001B6903F00103002B05D07B681B6923F0C3
:102C1C0001027B681A6100BF1437BD4680BC704747
:102C2C00002C01400004004080B487B000AFF86075
:102C3C00B9607A60FB681B6A7B61FB681B6A23F0D6
:102C4C000102FB681A62FB689B693B613B6923F0DC
:102C5C00F0033B617B681B013A6913433B617B6961
:102C6C0023F00A037B617A69BB6813437B61FB68C1
:102C7C003A699A61FB687A691A6200BF1C37BD46D3
:102C8C0080BC704780B487B000AFF860B9607A60E0
:102C9C00FB681B6A7B61FB681B6A23F01002FB68F4
:102CAC001A62FB689B693B613B6923F470433B618F
:102CBC007B681B033A6913433B617B6923F0A003D8
:102CCC007B61BB681B017A6913437B61FB683A69C2
:102CDC009A61FB687A691A6200BF1C37BD4680BCDA
:102CEC00704780B485B000AF786039607B689B68B2
:102CFC00FB60FB6823F07003FB603A68FB681343CE
:102D0C0043F00703FB607B68FA689A6000BF1437D6
:102D1C00BD4680BC704780B487B000AFF860B96026
:102D2C007A603B60FB689B687B617B6923F47F4323
:102D3C007B613B681A027B681A43BB6813437A6950
:102D4C0013437B61FB687A699A6000BF1C37BD46F0
:102D5C0080BC704780B485B000AF786039607B6808
:102D6C0093F83C30012B01D1022341E07B68012216
:102D7C0083F83C207B68022283F83D207B681B682B
:102D8C005B68FB607B681B689B68BB60FB6823F01F
:102D9C007003FB603B681B68FA681343FB607B683D
:102DAC001B68FA685A607B681B68144A934209D006
:102DBC007B681B68B3F1804F04D07B681B68104A9A
:102DCC0093420CD1BB6823F08003BB603B685B680B
:102DDC00BA681343BB607B681B68BA689A607B68EF
:102DEC00012283F83D207B68002283F83C200023DD
:102DFC0018461437BD4680BC704700BF002C0140FC
:102E0C000004004080B483B000AF786000BF0C3782
:102E1C00BD4680BC704780B483B000AF786000BF03
:102E2C000C37BD4680BC704770B500260C4D0D4C60
:102E3C00641BA410A64209D100F022F800260A4D0A
:102E4C000A4C641BA410A64205D170BD55F8043B76
:102E5C0098470136EEE755F8043B98470136F2E700
:102E6C00C82E0008C82E0008C82E0008CC2E00085A
:102E7C0003460244934200D1704703F8011BF9E763
:102E8C00F8B500BFF8BC08BC9E467047F8B500BF4B
:082E9C00F8BC08BC9E4670471B
:102EA40000000000000000000102030406070809F6
:102EB40002030405060708090A0B0C0D0E0F101077
:042EC4000102000007
:042EC80031010008CC
:042ECC000D010008EC
:102ED00001000000010000000100000001000000EE
:102EE00001000000010000000100000001000000DE
:102EF00001000000010000000100000001000000CE
:102F000001000000010000000100000001000000BD
:102F100001000000010000000100000001000000AD
:102F20002C0100002C0100002C0100002C010000ED
:102F30002C0100000100000001000000050000005D
:102F400002000000030000001F0000001F0000003E
:102F50000B0000000B00000000127A0010000000BF
:042F6000010000006C
:0400000508001815C2
:00000001FF
